:020000040800F2
:10800000000002206DC701080D4C010859C7010886
:10801000214C0108254C0108294C010800000000F2
:108020000000000000000000000000002D4C0108CE
:10803000314C010800000000354C0108B1C70108AF
:10804000B1C70108B1C70108B1C70108B1C701082C
:10805000B1C70108B1C70108B1C70108B1C701081C
:10806000B1C70108B1C70108B1C70108B1C701080C
:10807000B1C70108B1C70108311A0108B1C7010829
:10808000B1C70108B1C70108B1C70108B1C70108EC
:10809000B1C70108B1C70108B1C70108B1C70108DC
:1080A0000DE4000815790108B1C70108B1C701083E
:1080B000B1C70108B1C70108C5C40008B1C70108AC
:1080C000B1C70108B1C70108B1C70108B1C70108AC
:1080D000B1C70108B1C70108B1C70108B1C701089C
:1080E000B1C70108B1C70108B1C70108B1C701088C
:1080F000B1C70108B1C70108B1C70108B1C701087C
:10810000B1C70108B1C70108B1C70108B1C701086B
:10811000B1C70108B1C70108B1C70108B1C701085B
:10812000B1C70108B1C70108B1C70108B1C701084B
:10813000B1C70108B1C70108B1C70108B1C701083B
:10814000B1C70108B1C70108B1C70108B1C701082B
:10815000B1C70108B1C70108B1C70108B1C701081B
:10816000B1C70108B1C70108B1C70108B1C701080B
:10817000B1C70108B1C70108B1C70108B1C70108FB
:10818000B1C70108B1C701080000000000000000ED
:1081900040F0BF60024B40F40030D860704700BF31
:1081A00000ED00E0F0B40178C378012401F01F0273
:1081B00094404D092BB920350F4B43F82540F0BCB6
:1081C00070470E4B4678DB6882780B4FD843C0F37C
:1081D0000220C0F10403DBB29E400F230341F6B23C
:1081E0001340334339441B01DBB281F8003347F8B5
:1081F0002540F0BC704700BF00E100E000ED00E06A
:1082000021F0604121F07F01014B014399607047EB
:1082100000ED00E0044A136919B923EA0000106177
:10822000704718431061704700ED00E0044A13687E
:1082300004280CBF43F0040323F0040313607047C9
:1082400010E000E008B501214FF4807002F078F9E9
:1082500000214FF48070BDE8084002F071B900BF02
:1082600042680B6970B422F040720E790D688C6818
:1082700022F4807242EA06222A434260CE68856870
:10828000094A33432A4023434C79134343EA4403C6
:1082900083600A7DC36A013AD2B223F4700343EAD1
:1082A0000253C36270BC7047FDF7FFC00023012278
:1082B0000275036003714371C0E9023303617047C3
:1082C0000749084A30B4D0E900354C682240D0E96B
:1082D00002402B431343234303434B6030BC70479E
:1082E00000230140E030FCFF0023C0E90033C0E977
:1082F00002337047836819B923F001038360704724
:1083000043F0010383607047436823F4400323F480
:10831000007319434160704741628262704700BF39
:10832000436823F01F03194341607047054A5368AF
:1083300018B923F400035360704743F400035360FB
:10834000704700BF00230140054A536818B923F461
:1083500080035360704743F480035360704700BF4D
:1083600000230140092970B41CD9A1F10A0404EBCF
:108370004404C5680726A640A34025EA0604234313
:10838000062AC3601AD90C2A25D90D3A02EB8202BB
:10839000C36A1F249440914023EA04021143C1623E
:1083A00070BC704701EB410604690725B540B34036
:1083B00024EA05042343062A0361E4D8013A02EBC8
:1083C0008202436B1F249440914023EA040211432C
:1083D000416370BC7047073A02EB8202036B1F24B3
:1083E0009440914023EA04021143016370BC70473A
:1083F000836843F080438360704700BF8068C0F3A8
:1084000080507047836819B923F480638360704794
:1084100043F4806383607047836819B923F00203D3
:108420008360704743F00203836070474B1E4168CE
:1084300021F4604141EA433141607047436819B912
:1084400023F400634360704743F400634360704764
:10845000C06C80B2704700BF014B1868704700BF06
:1084600008230140836819B923F48073836070473F
:1084700043F4807383607047836819B923F40073F1
:108480008360704743F4007383607047054A536804
:1084900018B923F400535360704743F400535360FA
:1084A000704700BF00230140092970B41AD801EBBE
:1084B000410604690725B540B34024EA0504234377
:1084C0000361836B0232C3F30154121BD2B202EB7D
:1084D00082021F24944023EA0403914019438163DC
:1084E00070BC7047A1F10A0404EB4404C568072678
:1084F000A640A34025EA06042343C360E1E700BF8A
:108500004B1E816B21F4401141EA03518163704796
:1085100082B0002301930190019B19440191019BBA
:108520001A6002B0704700BF836823F470231943B8
:1085300081607047836823F440131943816070475A
:10854000836843F480038360704700BF8068C0F392
:1085500080507047436819B923F4806343607047C3
:1085600043F4806343607047436819B923F4805330
:108570004360704743F480534360704782B00023E8
:1085800001930190019B283319440191019B1868C4
:1085900080B202B0704700BFC9B201238B4041686E
:1085A0001AB921EA0303436070470B4343607047E5
:1085B0000368194214BF012000207047C9430160BD
:1085C000704700BF4268006810EA112007D00123FD
:1085D000C9B203FA01F1114214BF184600207047D6
:1085E0006FEA11210160704708B501214FF000507A
:1085F00001F09AFF00214FF00050BDE8084001F063
:1086000093BF00BF70B4D1E90036D1E90225084C10
:108610003343134340F6FE7122682B43814003FA33
:1086200000F022EA01031843206070BC704700BFCD
:10863000007400400023C0E90033C0E902337047F2
:10864000064A012303FA00F0136819B923EA00006F
:108650001060704718431060704700BF00740040FE
:10866000064A0123000903FA00F0536819B923EA06
:10867000000050607047184350607047007400401D
:10868000054A536818B923F003035360704743F059
:1086900003035360704700BF0074004081402AB953
:1086A000054A136823EA010111607047024B1868FC
:1086B00001431960704700BF0074004082B000227F
:1086C000054B01920193019B083318440190019BD3
:1086D000196002B0704700BF0074004082B00022F1
:1086E000054B01920193019B143318440190019BA7
:1086F000196002B0704700BF007400400828044BA6
:108700000CBF42EA012242EA0142C250704700BF58
:108710002074004082B00022064B01920193019B1D
:108720002C3303EB90000190019B186880B202B0DB
:10873000704700BF00740040064A4FF4805303FAAC
:1087400000F0136819B923EA00001060704718435D
:108750001060704700740040054B814018681AB9DA
:1087600020EA01011960704701431960704700BF9A
:1087700000740040034B5B6B8140194214BF012021
:108780000020704700740040014B814059637047DE
:1087900000740040054B1A685B6B814011EA0300CE
:1087A00003D00A4214BF012000207047007400402B
:1087B000014B81405963704700740040026836499C
:1087C000002310B422F001022124884202600360D9
:1087D00043608360C3600361446131D02F4B984292
:1087E00034D02F4B984238D02E4B984240D02E4B4D
:1087F000984244D02D4B984236D02D4B984242D0CF
:108800002C4B984217D02C4B984240D02B4B98427F
:108810001CD02B4B984220D02A4B984228D02A4B70
:1088200098422CD0294B98421ED0294B98422AD0EE
:10883000284B984207D14FF03D5243F8AC2C02E050
:10884000254B3D229A605DF8044B70474FF47462EB
:1088500043F8202C5DF8044B70474FF4741243F832
:10886000382C5DF8044B70471C4A43F87C2CEAE72F
:108870004FF0746243F8502C5DF8044B7047184A6F
:1088800043F8642CDFE7174A43F8942CDBE73D22DA
:1088900043F8082CD7E700BF106002402860024070
:1088A00040600240586002407060024088600240B0
:1088B000A0600240B8600240106402402864024098
:1088C0004064024058640240706402408864024080
:1088D000A0640240B864024000600240400F0020E3
:1088E0003D00002000003D200B6870B4D1E9052454
:1088F000CD682B431343D1E9072523431343D1E923
:1089000009422B43D1E90D652343134304680B4A05
:10891000334322402B4313430360D1E90B344269B4
:108920000D6922F0070223431343D1E90142436159
:1089300045608460C26070BC704700BF3F801CF01F
:108940000023C0E90033C0E90233C0E90433C0E9C1
:108950000633C0E90833C0E90A33C0E90C33836346
:10896000704700BF036819B923F001030360704723
:1089700043F0010303607047036819B923F400430F
:108980000360704743F4004303607047036819B9FC
:1089900023F020030360704743F020030360704717
:1089A00041607047406880B2704700BF036822B9D9
:1089B00023F4002303600161704743F40023036044
:1089C00001617047036819B923F48023036070477D
:1089D00043F48023036070470AB9C16070470161A6
:1089E000704700BF0068C0F3C0407047006800F0E7
:1089F00001007047406900F0380070470B4B0C4A8B
:108A000010B40C4CA04294BF184610468B004CBFCB
:108A1000436803685DF8044B21F0F02121F08211D6
:108A2000194214BF01200020704700BF00600240BF
:108A3000006402400F64024030B4084B084D094CFA
:108A400021F0F022A8428CBF1846204622F0821264
:108A50008B004CBFC260826030BC70470064024033
:108A60000F640240006002400B060CD54369AAB1B6
:108A700043F08003802943610FD0036801F01E0199
:108A8000194301607047802907D0002AF5D1036897
:108A900001F01E0123EA01010160704723F0800309
:108AA00080294361F3D1704730B4114B114D124A04
:108AB00021F0F02424F0C314A84298BF1A469CB1B8
:108AC000006800EAD12000F01E0388004CBF506807
:108AD000106821F0F02121F08211084002D0181C0A
:108AE00018BF012030BC7047436903F08003ECE7F6
:108AF000006002400F6402400064024030B4084B42
:108B0000084D094C21F0F022A8428CBF184620469F
:108B100022F082128B004CBFC260826030BC704772
:108B2000006402400F64024000600240014BC0B28A
:108B300018707047003C0240054A136818B923F4C6
:108B400080731360704743F480731360704700BFF5
:108B5000003C0240054A136818B923F400731360FF
:108B6000704743F400731360704700BF003C02403D
:108B7000054A136818B923F480631360704743F4FF
:108B800080631360704700BF003C0240024A1368D4
:108B900043F4006313607047003C0240024A1368CC
:108BA00043F4805313607047003C0240044B1A6941
:108BB000002A03DA0349044A59605A60704700BF2B
:108BC000003C024023016745AB89EFCD024A13699F
:108BD00043F0004313617047003C0240044B5A6964
:108BE000D20703D50349044A99609A60704700BFD1
:108BF000003C02403B2A19087F6E5D4C024A5369D3
:108C000043F0010353617047003C024082B00922E7
:108C1000304B8DF80720DA68D2031BD4DA68D2060D
:108C20004AD4DA68D20552D4DA6812F0EF0F45D18F
:108C3000DB6813F0020F0CBF092308238DF80730FF
:108C40009DF80730012B0CD09DF80730092B2BD055
:108C500002B0704701238DF807309DF80730012BD3
:108C6000F2D11C4B15E0DA68D20617D4DA68D205C7
:108C700016D4DA6812F0EF0F14D1DA6812F0020F8E
:108C80000CBF092208228DF807209DF80720012A31
:108C9000DAD1DA68D203E6D50122F4E70622F2E758
:108CA0000222F0E70722EEE780B249B90A4B1A88A0
:108CB0001043188002B070470623CCE70723CAE7A9
:108CC000054A138823EA0000108002B0704702238F
:108CD000C1E700BF003C0240163C024082B00922BE
:108CE000304B8DF80720DA68D2031BD4DA68D2063D
:108CF0004AD4DA68D20552D4DA6812F0EF0F45D1BF
:108D0000DB6813F0020F0CBF092308238DF807302E
:108D10009DF80730012B0CD09DF80730092B2BD084
:108D200002B0704701238DF807309DF80730012B02
:108D3000F2D11C4B15E0DA68D20617D4DA68D205F6
:108D400016D4DA6812F0EF0F14D1DA6812F0020FBD
:108D50000CBF092208228DF807209DF80720012A60
:108D6000DAD1DA68D203E6D50122F4E70622F2E787
:108D70000222F0E70722EEE780B249B90A4B1A88CF
:108D80001043188002B070470623CCE70723CAE7D8
:108D9000054A138823EA0000108002B070470223BE
:108DA000C1E700BF003C02401A3C0240034A13786E
:108DB00003F07F0318431070704700BF173C024058
:108DC00082B00922304B8DF80720DA68D2031BD419
:108DD000DA68D2064BD4DA68D20552D4DA6812F0D7
:108DE000EF0F46D1DB6813F0020F0CBF09230823F5
:108DF0008DF807309DF80730012B0CD09DF8073017
:108E0000092B2BD002B0704701238DF807309DF855
:108E10000730012BF2D11C4B15E0DA68D20617D4CB
:108E2000DA68D20516D4DA6812F0EF0F14D1DA68D6
:108E300012F0020F0CBF092208228DF807209DF8BE
:108E40000720012ADAD1DA68D203E6D50122F4E755
:108E50000622F2E70222F0E70722EEE780B251B9DC
:108E60000A4A138823EA0000108002B070470623E4
:108E7000CBE70723C9E7054B1A881043188002B0D7
:108E800070470223C1E700BF003C0240163C02408D
:108E900082B00922304B8DF80720DA68D2031BD448
:108EA000DA68D2064BD4DA68D20552D4DA6812F006
:108EB000EF0F46D1DB6813F0020F0CBF0923082324
:108EC0008DF807309DF80730012B0CD09DF8073046
:108ED000092B2BD002B0704701238DF807309DF885
:108EE0000730012BF2D11C4B15E0DA68D20617D4FB
:108EF000DA68D20516D4DA6812F0EF0F14D1DA6806
:108F000012F0020F0CBF092208228DF807209DF8ED
:108F10000720012ADAD1DA68D203E6D50122F4E784
:108F20000622F2E70222F0E70722EEE780B251B90B
:108F30000A4A138823EA0000108002B07047062313
:108F4000CBE70723C9E7054B1A881043188002B006
:108F500070470223C1E700BF003C02401A3C0240B8
:108F600082B00922294B8DF80720DA68D1031DD47D
:108F7000DA68D20644D4DA68D10545D4DA6812F04A
:108F8000EF0F3FD1DB6813F0020F14BF0823092352
:108F90008DF807309DF80730012B0ED09DF8073073
:108FA000092B04BF1A4B187002B0704701238DF8CB
:108FB00007309DF80730012BF0D1144B15E0DA682B
:108FC000D10617D4DA68D20516D4DA6812F0EF0F9A
:108FD00014D1DA6812F0020F14BF082209228DF8AA
:108FE00007209DF80720012AD8D1DA68D203E6D5F8
:108FF0000122F4E70622F2E70222F0E70722EEE779
:109000000623D4E70723D2E70223D0E7003C02403F
:10901000153C024010B483B009242E4B8DF8074054
:10902000DC68E40325D4DC68E4064CD4DC68E405A1
:109030004DD4DC6814F0EF0F47D1DB6813F0020F5A
:1090400014BF082309238DF807309DF80730012B42
:1090500016D09DF80730092B07D11F4C237803F059
:109060001F03184302431143217003B05DF8044B02
:10907000704701238DF807309DF80730012BE8D1A8
:10908000144B15E0DC68E40617D4DC68E40516D45C
:10909000DC6814F0EF0F14D1DC6814F0020F14BF79
:1090A000082409248DF807409DF80740012CD0D1F1
:1090B000DC68E403E6D50124F4E70624F2E70224A1
:1090C000F0E70724EEE70623D4E70723D2E70223DD
:1090D000D0E700BF003C0240143C0240044B1A7829
:1090E00002F0EF021A701A7810431870704700BF30
:1090F000143C0240044B1A7802F0F3021A701A78FA
:1091000010431870704700BF143C02402B492C4A92
:109110000B7882B043F0020309200B708DF8070032
:10912000D368DB0319D4D368D90640D4D368DB05F0
:1091300041D4D36813F0EF0F3BD1D36813F0020F83
:1091400014BF082303468DF807309DF80730012B24
:109150000AD09DF8070002B0704701238DF8073050
:109160009DF80730012BF4D1154B15E0DA68D106D4
:1091700017D4DA68D20516D4DA6812F0EF0F14D1DA
:10918000DA6812F0020F14BF082209228DF80720B6
:109190009DF80720012ADCD1DA68D003E6D5012248
:1091A000F4E70622F2E70222F0E70722EEE70623C1
:1091B000D4E70723D2E70223D0E700BF143C0240E4
:1091C000003C0240024B5869C0F34710704700BF93
:1091D000003C0240014B1888704700BF163C02401B
:1091E000014B1888704700BF1A3C0240014B188899
:1091F000704700BF163C0240014B1888704700BF03
:109200001A3C0240024B1878AA3818BF0120704758
:10921000153C0240024B187800F00C00704700BF6C
:10922000143C0240044A136919B923EA0000106192
:109230007047184310617047003C0240034BDB68E5
:10924000034214BF01200020704700BF003C0240D1
:10925000014BD860704700BF003C02400E4BDA68FB
:10926000D20310D4DA68D1060FD4DA68D20510D44C
:10927000DA6812F0EF0F0AD1DB6813F0020F14BFA7
:1092800008200920704701207047062070470720FA
:1092900070470220704700BF003C024082B00922A4
:1092A000274B8DF80720DA68D00319D4DA68D10685
:1092B00040D4DA68D20541D4DA6812F0EF0F3BD11E
:1092C000DB6813F0020F14BF082309238DF8073061
:1092D0009DF80730012B0AD09DF8070002B07047B7
:1092E00001238DF807309DF80730012BF4D1144B82
:1092F00015E0DA68D10617D4DA68D20516D4DA6830
:1093000012F0EF0F14D1DA6812F0020F14BF082226
:1093100009228DF807209DF80720012ADCD1DA68A0
:10932000D003E6D50122F4E70622F2E70222F0E7B5
:109330000722EEE70623D4E70723D2E70223D0E78C
:10934000003C024010B5044682B039B1012975D005
:1093500002290CBF4FF400714FF4407109223C4BBD
:109360008DF80720DA68D0031CD4DA68D20668D4F6
:10937000DA68D00569D4DA6812F0EF0F63D1DB68E0
:1093800013F0020F14BF082309238DF807309DF84E
:109390000730012B0DD09DF80730D8B209282BD00B
:1093A00002B010BD01238DF807309DF80730012B66
:1093B000F1D1274B15E0DA68D00617D4DA68D20568
:1093C00016D4DA6812F0EF0F14D1DA6812F0020F37
:1093D00014BF082209228DF807209DF80720012AD2
:1093E000D9D1DA68D203E6D50122F4E70622F2E702
:1093F0000222F0E70722EEE72046154C236923F40A
:1094000040732361236919432161236923F0F80321
:109410002361236943F0020318432061236943F465
:1094200080332361FFF73AFF236923F002032361AE
:10943000236923F0F803236102B010BD4FF480715B
:109440008CE70623AFE70723ADE70223ABE700BFB6
:10945000003C024010B582B009223E4B8DF8072037
:10946000DA68D403014625D4DA68D00668D4DA680D
:10947000D2056CD4DA6812F0EF0F63D1DB6813F019
:10948000020F14BF082309238DF807309DF8073019
:10949000012B16D09DF80730D8B239B1012953D02D
:1094A00002290CBF4FF400714FF4407109282BD0F2
:1094B00002B010BD01238DF807309DF80730012B55
:1094C000E8D1244B15E0DA68D00617D4DA68D20563
:1094D00016D4DA6812F0EF0F14D1DA6812F0020F26
:1094E00014BF082209228DF807209DF80720012AC1
:1094F000D0D1DA68D403E6D50122F4E70622F2E7F8
:109500000222F0E70722EEE7124C236923F44073AE
:109510002361236919432161236943F4004343F024
:1095200004032361236943F480332361FFF7B6FE0C
:10953000236923F4004323F00403236102B010BD28
:109540000623B8E70723B6E74FF48071AEE702239E
:10955000B1E700BF003C024010B582B009223C4B8D
:109560008DF80720DA68D403014625D4DA68D006DE
:1095700064D4DA68D20568D4DA6812F0EF0F5FD1EC
:10958000DB6813F0020F14BF082309238DF807309E
:109590009DF80730012B16D09DF80730D8B239B1AD
:1095A00001294FD002290CBF4FF400714FF44071D4
:1095B00009282BD002B010BD01238DF807309DF88B
:1095C0000730012BE8D1224B15E0DA68D00617D41A
:1095D000DA68D20516D4DA6812F0EF0F14D1DA681F
:1095E00012F0020F14BF082209228DF807209DF8FF
:1095F0000720012AD0D1DA68D403E6D50122F4E7A6
:109600000622F2E70222F0E70722EEE7104C236978
:1096100023F440732361236919432161236943F0D3
:1096200004032361236943F480332361FFF736FE8B
:10963000236923F00403236102B010BD0623BCE7B5
:109640000723BAE74FF48071B2E70223B5E700BF02
:10965000003C024010B582B009223C4B8DF8072037
:10966000DA68D403014625D4DA68D00664D4DA680F
:10967000D20568D4DA6812F0EF0F5FD1DB6813F01F
:10968000020F14BF082309238DF807309DF8073017
:10969000012B16D09DF80730D8B239B101294FD02F
:1096A00002290CBF4FF400714FF4407109282BD0F0
:1096B00002B010BD01238DF807309DF80730012B53
:1096C000E8D1224B15E0DA68D00617D4DA68D20563
:1096D00016D4DA6812F0EF0F14D1DA6812F0020F24
:1096E00014BF082209228DF807209DF80720012ABF
:1096F000D0D1DA68D403E6D50122F4E70622F2E7F6
:109700000222F0E70722EEE7104C236923F44073AE
:109710002361236919432161236943F400432361D1
:10972000236943F480332361FFF7B8FD236923F4F1
:109730000043236102B010BD0623BCE70723BAE74C
:109740004FF48071B2E70223B5E700BF003C02404E
:10975000F0B583B0092437498DF80740CF68064635
:10976000F80314461D461CD4CB68DA065CD4CB68DB
:10977000DB055DD4CB6813F0EF0F57D1CB6813F046
:10978000020F14BF082309238DF807309DF8073016
:10979000012B0DD09DF80730D8B209282BD003B08B
:1097A000F0BD01238DF807309DF80730012BF1D172
:1097B000204B15E0D968C80617D4DA68D20516D44C
:1097C000DA6812F0EF0F14D1DA6812F0020F14BF4A
:1097D000082109218DF807109DF807100129D9D11A
:1097E000D968CF03E6D50121F4E70621F2E702218B
:1097F000F0E70721EEE729460E4D2B6923F440736D
:109800002B612B6943F440732B612B69204643F095
:1098100001032B61C6E90001FFF740FD2B6923F02E
:1098200001032B6103B0F0BD0623BBE70723B9E7B3
:109830000223B7E7003C024010B582B00922354B45
:109840008DF80720DA680446D0031CD4DA68D20603
:109850005AD4DA68D0055BD4DA6812F0EF0F55D12C
:10986000DB6813F0020F14BF082309238DF80730BB
:109870009DF80730012B0DD09DF80730D8B209288C
:109880002BD002B010BD01238DF807309DF80730B2
:10989000012BF1D11F4B15E0DA68D00617D4DA6836
:1098A000D20516D4DA6812F0EF0F14D1DA6812F08C
:1098B000020F14BF082209228DF807209DF8072007
:1098C000012AD9D1DA68D203E6D50122F4E70622CB
:1098D000F2E70222F0E70722EEE720460D4C23696B
:1098E00023F440732361236943F4007323612369E4
:1098F00043F0010323610160FFF7D0FC236923F0EB
:109900000103236102B010BD0623BDE70723BBE7B7
:109910000223B9E7003C024010B582B00922354B62
:109920008DF80720DA680446D0031CD4DA68D20622
:109930005AD4DA68D0055BD4DA6812F0EF0F55D14B
:10994000DB6813F0020F14BF082309238DF80730DA
:109950009DF80730012B0DD09DF80730D8B20928AB
:109960002BD002B010BD01238DF807309DF80730D1
:10997000012BF1D11F4B15E0DA68D00617D4DA6855
:10998000D20516D4DA6812F0EF0F14D1DA6812F0AB
:10999000020F14BF082209228DF807209DF8072026
:1099A000012AD9D1DA68D203E6D50122F4E70622EA
:1099B000F2E70222F0E70722EEE720460D4C23698A
:1099C00023F440732361236943F480732361236983
:1099D00043F0010323610180FFF760FC236923F05A
:1099E0000103236102B010BD0623BDE70723BBE7D7
:1099F0000223B9E7003C024010B582B00922344B83
:109A00008DF80720DA680446D0031CD4DA68D20641
:109A100058D4DA68D00559D4DA6812F0EF0F53D170
:109A2000DB6813F0020F14BF082309238DF80730F9
:109A30009DF80730012B0DD09DF80730D8B20928CA
:109A40002BD002B010BD01238DF807309DF80730F0
:109A5000012BF1D11E4B15E0DA68D00617D4DA6875
:109A6000D20516D4DA6812F0EF0F14D1DA6812F0CA
:109A7000020F14BF082209228DF807209DF8072045
:109A8000012AD9D1DA68D203E6D50122F4E7062209
:109A9000F2E70222F0E70722EEE720460C4C2369AA
:109AA00023F44073236123692361236943F0010395
:109AB00023610170FFF7F2FB236923F001032361A7
:109AC00002B010BD0623BFE70723BDE70223BBE7B3
:109AD000003C024008B53C4B984222D03B4B984298
:109AE00029D03B4B984230D03A4B984237D03A4B32
:109AF00098420CD0394B98423BD0394B984242D0D7
:109B0000384B984255D0384B984246D008BD012179
:109B1000102000F0E5FC00211020BDE8084000F016
:109B2000DFBC0121084600F0DBFC00210120BDE87C
:109B3000084000F0D5BC0121022000F0D1FC00213A
:109B40000220BDE8084000F0CBBC0121042000F059
:109B5000C7FC00210420BDE8084000F0C1BC012181
:109B6000082000F0BDFC00210820BDE8084000F0FE
:109B7000B7BC0121202000F0B3FC00212020BDE86B
:109B8000084000F0ADBC0121402000F0A9FC0021FC
:109B90004020BDE8084000F0A3BC01214FF48070D4
:109BA00000F09EFC00214FF48070BDE8084000F0FA
:109BB00097BC0121802000F093FC00218020BDE8AB
:109BC000084000F08DBC00BF0000024000040240CD
:109BD00000080240000C0240001002400014024045
:109BE00000180240001C0240002002402DE9F0470E
:109BF000D1F800C0002301274FF0030E02E001332B
:109C0000102B3FD007FA03F232EA0C04F7D15C00C4
:109C1000D0F800800E790EFA04F5ED4308EA050845
:109C2000C0F80080D0F800A006FA04F9013E49EA25
:109C30000A09012E0EFA04F8C0F8009016D8D0F8E0
:109C400008904E7905EA09058560D0F808908D796D
:109C5000A64046EA09068660466826EA0202426095
:109C6000466805FA03F292B232434260C568CA7987
:109C700025EA0805C560C568A24001332A43102BB8
:109C8000C260BFD1BDE8F0874FF6FF720023C0E984
:109C90000023704782B04FF480330193019B0B4344
:109CA0000193019BC361C161019BC361C3690193BE
:109CB000C369019302B070470369194214BF0120C0
:109CC00000207047006980B2704700BF43691942A5
:109CD00014BF012000207047406980B2704700BF68
:109CE00001837047418370470AB9418370470183FC
:109CF000704700BF416170474369594041617047F7
:109D0000CB0800EB830001F0070110B4036A89005F
:109D10000F248C4023EA04030362036A5DF8044BBA
:109D200002FA01F119430162704700BF08B5174BF1
:109D3000984206D0164B98421BD0164B98420CD036
:109D400008BD01214FF4001000F0EEFB00214FF49C
:109D50000010BDE8084000F0E7BB01214FF400000F
:109D600000F0E2FB00214FF40000BDE8084000F0E5
:109D7000DBBB01214FF4800000F0D6FB00214FF443
:109D80008000BDE8084000F0CFBB00BF0054004099
:109D900000580040005C0040F0B5054685B06846BC
:109DA0000E46AC8800F0AAFA02982C493368DFF816
:109DB000B8C0A1FB002124F03F042404890C240C2A
:109DC0008FB23C43AC802A8822F001021204120CAC
:109DD00063452A801BD85B00B0FBF3F39BB20137CD
:109DE000042B38BF04232F84AB832A88B18874895D
:109DF0001B4B308942F001022A802F88B2893B40F8
:109E000021430B4302432B802A8105B0F0BDF48827
:109E10004BF6FF7294421AD003EB830303EB8303E8
:109E2000B0FBF3F39BB243F48043C3F30B020AB9D4
:109E300043F001034FF496720A4802FB01F1A0FBC4
:109E400001218909013143F400432984CCE703EB64
:109E50004303B0FBF3F39BB2E7E700BF83DE1B4392
:109E6000F5FBFFFFD34D6210A086010041F288335D
:109E70000449036000224FF48043C0E9011283814A
:109E8000704700BF0000FFBF038829B923F001031A
:109E90001B041B0C0380704743F0010303807047D1
:109EA000038829B923F480731B041B0C03807047BB
:109EB00043F4807303807047038829B923F4007347
:109EC0001B041B0C0380704743F40073038070472E
:109ED00022B901F0FE0189B20182704741F001010F
:109EE00089B20182704700BF038829B923F48063D7
:109EF0001B041B0C0380704743F48063038070478E
:109F000083899BB201F0FE0123F0FE030B438381A2
:109F1000704700BF838929B923F001031B041B0C80
:109F20008381704743F0010383817047038829B917
:109F300023F040031B041B0C0380704743F04003D5
:109F400003807047038819B9C3F30E030380704779
:109F500043F4004303807047038829B123F0800352
:109F60001B041B0C0380704743F080030380704781
:109F7000838BB1F5804F1DBF23F480431B041B0C62
:109F800043F48043838370470388B1F5006F1BBFA0
:109F900023F400631B0443F400631B0C038070472D
:109FA0000388B1F5005F1BBF23F400531B0443F487
:109FB00000531B0C03807047038829B923F010035A
:109FC0001B041B0C0380704743F010030380704791
:109FD00001827047008AC0B2704700BF038829B968
:109FE00023F480531B041B0C0380704743F48053FD
:109FF000038070470388B1F5006F1BBF23F4006333
:10A000001B0443F400631B0C03807047038829B9C9
:10A0100023F020031B041B0C0380704743F0200334
:10A0200003807047008B000A704700BF838829B9FE
:10A0300023F400631B041B0C8380704743F400630C
:10A0400083807047838829B923F480531B041B0C39
:10A050008380704743F480538380704782B000232D
:10A0600001930190019B19440191019B188802B052
:10A07000704700BF83881AB923EA010181807047C5
:10A0800019438180704700BF838A028B21F07F4093
:10A0900043EA02431840401AB0FA80F04009704782
:10A0A000838A008B43EA004020F07F40704700BF66
:10A0B00082B000230A0F0093019301900092009B4D
:10A0C00021F07F4153B1019B14330193019B1B6825
:10A0D0000B4214BF0120002002B07047019B1833CF
:10A0E000090C0193F2E700BFC94389B2818270472E
:10A0F0008388808A08409BB206D003F4E06313EAA9
:10A10000114314BF01200020704700BFC94389B22A
:10A11000818270470F4B10481A68002142F00102FB
:10A1200030B41A6099601A680C4D0D4C22F0A85298
:10A1300022F410221A605D60C3F88440C3F88800DE
:10A140001A6822F480221A6030BCD960C3F88C10DF
:10A15000704700BF00380240003000241030002457
:10A1600000300020024B00221A701870704700BFA8
:10A170000238024082B00023094A0193136813F4A5
:10A18000003F019B03F101030193019B02D1B3F551
:10A19000A06FF3D1024B1868C0F3404002B0704783
:10A1A00000380240034A136823F0F80343EAC00072
:10A1B0001060704700380240014B1860704700BFC4
:10A1C00000004742064B002201281A701A7005D081
:10A1D000042802D105221A70704770471870704722
:10A1E00070380240014B1860704700BF800E474234
:10A1F00030B4029C064D40EA04605B080843013B12
:10A2000040EA821040EA0340686030BC704700BFFB
:10A2100000380240014B1860704700BF60004742A1
:10A22000120742EA0162034B42EA8012C3F884201B
:10A23000704700BF00380240014B1860704700BFF4
:10A2400068004742120742EA0162034B42EA801269
:10A25000C3F88820704700BF00380240014B1860E7
:10A26000704700BF70004742014B1860704700BF45
:10A270004C004742034A936823F0EC6319430143BF
:10A280009160704700380240034A936823F0784396
:10A29000194301439160704700380240034A9368B4
:10A2A00023F0030318439060704700BF003802405A
:10A2B000024B986800F00C00704700BF0038024065
:10A2C000034A936823F0F00318439060704700BF7F
:10A2D00000380240034A936823F4E0531843906027
:10A2E000704700BF00380240034A936823F460437C
:10A2F00043EAC00090607047003802401F4A9368EC
:10A3000003F00C03042B10B434D0082B19D01C4BD1
:10A3100003601A4A1B499468C4F303140C5DE340BC
:10A3200043609468C4F382240C5D23FA04F48460CF
:10A3300092685DF8044BC2F342328A5CD340C3603A
:10A3400070475468516852686302C2F3881201F082
:10A350003F014CBF0C4B0A4BB3FBF1F303FB02F381
:10A36000064A5268C2F3014201325200B3FBF2F3D3
:10A370000360CEE7044B0360CBE700BF0038024028
:10A380000024F4000000002000127A0000F4407362
:10A39000B3F5407F09D108498A6820F0704322F460
:10A3A000F81223F4407313438B60034B1A6FC0F30E
:10A3B0000B0010431867704700380240014B1860CB
:10A3C000704700BF3C0E4742014B1860704700BF0A
:10A3D000400E4742014B1860704700BF5C01474286
:10A3E000044AD2F88C30013823F01F031843C2F816
:10A3F0008C00704700380240054AD2F88C30013892
:10A4000023F4F85343EA0023C2F88C30704700BFAE
:10A4100000380240044AD2F88C3023F44013184329
:10A42000C2F88C00704700BF00380240044AD2F8DE
:10A430008C3023F440031843C2F88C00704700BFEF
:10A4400000380240044AD2F88C3023F440331843D9
:10A45000C2F88C00704700BF00380240014B186002
:10A46000704700BFE0114742044A136B19B923EA51
:10A4700000001063704718431063704700380240B3
:10A48000044A536B19B923EA00005063704718431C
:10A490005063704700380240044A936B19B923EAAD
:10A4A0000000906370471843906370470038024083
:10A4B000044A136C19B923EA00001064704718436A
:10A4C0001064704700380240044A536C19B923EAFB
:10A4D00000005064704718435064704700380240D1
:10A4E000044A136919B923EA000010617047184340
:10A4F0001061704700380240044A536919B923EAD1
:10A5000000005061704718435061704700380240A6
:10A51000044A936919B923EA00009061704718430F
:10A520009061704700380240044A136A19B923EA5F
:10A5300000001062704718431062704700380240F4
:10A54000044A536A19B923EA00005062704718435D
:10A550005062704700380240044A136D19B923EA6B
:10A5600000001065704718431065704700380240BE
:10A57000044A536D19B923EA000050657047184327
:10A580005065704700380240044A936D19B923EAB8
:10A59000000090657047184390657047003802408E
:10A5A000044A136E19B923EA000010667047184375
:10A5B0001066704700380240044A536E19B923EA06
:10A5C00000005066704718435066704700380240DC
:10A5D000044A137819B923EA000010707047184331
:10A5E000107070470D3802404309012B0BD0022B2D
:10A5F000094B0CBF1B6F5B6F00F01F0023FA00F0CC
:10A6000000F001007047044B1B6800F01F0023FAA4
:10A6100000F000F00100704700380240024A536F1A
:10A6200043F080735367704700380240034BDB6888
:10A63000184214BF01200020704700BF00380240BC
:10A64000014B1870704700BF0E38024008B5012159
:10A650004FF40060FFF774FF00214FF40060BDE885
:10A660000840FFF76DBF00BF0A4970B44A68C6686A
:10A670000568D0E9014322F4FD4222F07F02234322
:10A6800013430469027D33432B43234313434B603D
:10A6900070BC7047002C014000230375C0E90033F3
:10A6A000C0E9023303617047014B1860704700BF77
:10A6B000A0802542014B1860704700BF002C01406C
:10A6C000024B186800F00300704700BF002C0140E7
:10A6D0000949036830B48B60D0E90135CA68D0E914
:10A6E000034022F4FF622B4322F00702134323436B
:10A6F0000343CB6030BC7047002C01400023C0E90D
:10A700000033C0E902330361704700BF014B186991
:10A71000C0B27047002C0140044B82B003440022B9
:10A7200001920193019B186802B07047142C0140FC
:10A73000094A036830B4536243689362D0E9023532
:10A74000D16AD0E904402B4321F0F7010B432343A6
:10A750000343D36230BC7047002C014000234FF00C
:10A76000FF32C0E90023C0E90233C0E90433704777
:10A77000014B186B704700BF002C0140014BD3F810
:10A7800080007047002C0140014BC3F880007047E7
:10A79000002C0140014B986C704700BF002C014019
:10A7A000014B1860704700BFA0852542014B18601F
:10A7B000704700BFA4852542014B1860704700BF59
:10A7C000A8852542014B1860704700BFAC85254223
:10A7D000014B1860704700BFAC812542014B1860E7
:10A7E000704700BFB0812542C043024B00F001001A
:10A7F00018607047B4812542014B1860704700BF54
:10A80000B8812542014B1860704700BF8C852542F6
:10A81000044AD36B19B923EA0000D0637047184388
:10A82000D0637047002C0140034B5B6B034214BFA5
:10A8300001200020704700BF002C0140014B9863AD
:10A84000704700BF002C0140034B5B6B184214BFE4
:10A8500001200020704700BF002C0140014B98638D
:10A86000704700BF002C014008B5174B984206D036
:10A87000164B98421BD0164B98420CD008BD0121B4
:10A880004FF48050FFF75CFE00214FF48050BDE88C
:10A890000840FFF755BE01214FF40040FFF744FE8A
:10A8A00000214FF40040BDE80840FFF73DBE012104
:10A8B0004FF48040FFF738FE00214FF48040BDE8A0
:10A8C0000840FFF731BE00BF0030014000380040B3
:10A8D000003C00400B888A8830B44C88CD882343E4
:10A8E00013430C894A892B4323438D89CC89098AD8
:10A8F000134302882B43234302F441521343038042
:10A90000838B23F400631B041B0C838330BC018204
:10A91000704700BF828B2E4B134002222DE9F0417D
:10A9200083838E680284848B8A88CD88022EA4B2A9
:10A9300036D0284B9F68002A0CBF4FF0200E4FF0F6
:10A94000400E3F023BD4DFF88C80DFF890C0D8F88F
:10A950008430D8F88470D8F80480B5F5007FC3F34C
:10A960008813C7F3027708F03F08BCFBF8FC03FB31
:10A970000CF3B3FBF7F30CBF1B0AB3FBFEF303EBC3
:10A9800083035B00B3FBF6F3134E05339BB2A6FBC8
:10A990000363DB085E08B71EFD2F03F0010313D924
:10A9A00002230E8832434E88898942F40062324382
:10A9B0000A431D43144305848483BDE8F0819F68E6
:10A9C00027F400079F60BEE746EA0323E9E700BFDC
:10A9D00040F0FFFF00380240CDCCCCCC00127A0012
:10A9E000002307220282036043608360C3607047D4
:10A9F000002302228260C0E900338381704700BFD8
:10AA0000038829B923F040031B041B0C0380704703
:10AA100043F0400303807047838B29B923F480639C
:10AA20001B041B0C8383704743F48063838370474C
:10AA3000038823F400631B041B0C03800388194361
:10AA4000018070470388B1F5804F1BBF23F480431A
:10AA50001B0443F480431B0C038070474FF6FF63D5
:10AA60009942038805BF23F480731B0443F4807369
:10AA70001B0C0380704700BF838829B923F00403AF
:10AA80001B041B0C8380704743F0040383807047D2
:10AA9000838829B923F010031B041B0C83807047A3
:10AAA00043F010038380704730B40E4A858B8C8846
:10AAB0004B882A40828302250A88058423438C8997
:10AAC000818B22F4007243F400632343002A43EA9B
:10AAD00001030CBF4FF4807200221343838330BC08
:10AAE000704700BF40F0FFFF808970478181704749
:10AAF000038829B923F400531B041B0C03807047FF
:10AB000043F4005303807047038843F48053038069
:10AB1000704700BF012914BF008B808A80B2704744
:10AB2000008A704783881AB923EA0101818070473F
:10AB300019438180704700BF0123090903FA01F11D
:10AB400089B283881AB923EA0101818070471943C9
:10AB5000818070470389194214BF0120002070478B
:10AB6000C94389B201817047828810B401230489E6
:10AB700001F00F0003FA00F0204006D0090992B25C
:10AB80008B401A4214BF012000205DF8044B70472F
:10AB900001F00F01012303FA01F1C94389B20181D8
:10ABA000704700BF08B5604B984232D0B0F1804F7B
:10ABB00039D05E4B984240D05D4B984247D05D4BB8
:10ABC00098421CD05C4B98424BD05C4B984252D080
:10ABD0005B4B984265D05B4B98426CD05A4B984285
:10ABE00053D05A4B984272D0594B98427BD0594B14
:10ABF000984200F08E80584B98427ED008BD0121CB
:10AC00000820FFF791FC00210820BDE80840FFF76D
:10AC10008BBC01210846FFF793FC00210120BDE811
:10AC20000840FFF78DBC01210846FFF77DFC00219D
:10AC30000120BDE80840FFF777BC01210220FFF7A3
:10AC400073FC00210220BDE80840FFF76DBC012124
:10AC50000420FFF769FC00210420BDE80840FFF74D
:10AC600063BC01211020FFF75FFC00211020BDE82C
:10AC70000840FFF759BC01212020FFF755FC0021B7
:10AC80002020BDE80840FFF74FBC01214FF4003001
:10AC9000FFF756FC00214FF40030BDE80840FFF7F5
:10ACA0004FBC01210220FFF74BFC00210220BDE830
:10ACB0000840FFF745BC01214FF48030FFF740FC0E
:10ACC00000214FF48030BDE80840FFF739BC012176
:10ACD0004FF48020FFF734FC00214FF48020BDE8C2
:10ACE0000840FFF72DBC01214020FFF71DFC00218B
:10ACF0004020BDE80840FFF717BC01214FF48070E9
:10AD0000FFF712FC00214FF48070BDE80840FFF708
:10AD10000BBC01218020FFF707FC00218020BDE84B
:10AD20000840FFF701BC00BF0000014000040040E4
:10AD300000080040000C00400010004000140040DB
:10AD4000000401400040014000440140004801402F
:10AD500000180040001C004000200040214A0388E9
:10AD6000904270B49BB212D002F5806290420ED035
:10AD7000B0F1804F0BD0A2F58032904207D002F59F
:10AD80008062904203D002F58062904203D14A88EB
:10AD900023F070031343144D4C680A88A84215D061
:10ADA00005F58065A84211D00E8923F4407305F59E
:10ADB0006C459BB23343A8420380C46202850CD128
:10ADC0008B7A03860123838270BC70470380C46240
:10ADD00002850123838270BC7047044B9842EFD0F8
:10ADE000F7E700BF000001400010004000040140F0
:10ADF00000234FF0FF32426003810360837270478B
:10AE000001858282704700BF038823F070031B0412
:10AE10001B0C19430180704741627047C162704743
:10AE2000406A7047008D7047038829B923F00203F8
:10AE30001B041B0C0380704743F002030380704720
:10AE4000038829B923F004031B041B0C03807047FB
:10AE500043F0040303807047038829B923F080037B
:10AE60001B041B0C0380704743F080030380704772
:10AE7000038823F008031B041B0C03800388194379
:10AE800001807047038823F440731B041B0C03806C
:10AE90000388194301807047038829B923F001030F
:10AEA0001B041B0C0380704743F0010303807047B1
:10AEB000F0B4048C8D89B1F802C00F88194E24F0CB
:10AEC00001042404240C0484028C8488038B22F063
:10AED000020223F0730312041B04120C45EA0C0552
:10AEE0001B0CB04242EA0502A4B243EA070309D0B0
:10AEF0000D4DA84206D0896884800383F0BC41636D
:10AF000002847047CE890D8A4F8A22F008023243AC
:10AF10008E8824F4407422F004023D4332432C43D3
:10AF2000E9E700BF0000014000040140F0B4048CD8
:10AF30008E89B1F802C00F881D4D24F0100424043E
:10AF4000240C0484038C8488028B23F0200322F4D5
:10AF5000E6421B0412041B0C46EA0C06120C43EAE0
:10AF6000061342EA0722A8429BB2A4B292B20AD0C8
:10AF700005F58065A84206D0896884800283F0BC0C
:10AF8000816303847047CD890E8A4F8A23F0800342
:10AF900043EA05134FF6BF751D408B8824F44064C7
:10AFA0003E4345EA031344EA86049BB2A4B2E3E7B6
:10AFB00000000140F0B5048C8D89B1F802E00F88E3
:10AFC0001D4E24F480742404240C0484038CB0F8F3
:10AFD00004C0828B23F400731B0422F0730245EA41
:10AFE0000E041B0C120443EA0423120CB0429BB261
:10AFF0001FFA8CF542EA070208D0104CA04205D097
:10B00000896885808283C1630384F0BDCC890E8A00
:10B010004F8A23F4006343EA04234FF6FF341C40B5
:10B020008B8825F440553E4344EA032345EA061441
:10B030009BB2A5B2E4E700BF00000140000401405C
:10B04000F0B4048C8E89B1F802C00F88164D24F438
:10B0500080542404240C0484038C8488828B23F47D
:10B06000005322F4E6421B0412041B0C46EA0C06B1
:10B07000120C43EA063342EA0722A8429BB2A4B26A
:10B0800092B20AD005F58065A84206D0896884800E
:10B090008283F0BC0164038470470D8A24F48044E9
:10B0A00044EA8514A4B2F1E70000014000230360E4
:10B0B0008380C0E902330361704700BF038C10B482
:10B0C00001248C4023EA040321F00804038418308F
:10B0D0007CB10439C1F34E0148F6FF740B5823408C
:10B0E0000B5012020B585DF8044B92B21A430A50EF
:10B0F000704749084FF68F740B5823400B500B587C
:10B100005DF8044B1A430A50704700BF4163704713
:10B1100081637047C163704701647047038B23F0FC
:10B1200070031B041B0C194301837047038B23F42A
:10B13000E0431B041B0C43EA012189B201837047E1
:10B14000838B23F070031B041B0C1943818370470E
:10B15000838B23F4E0431B041B0C43EA012189B2D7
:10B1600081837047038B23F008031B041B0C1943D6
:10B1700001837047038B23F400631B041B0C43EA19
:10B18000012189B201837047838B23F008031B04DC
:10B190001B0C194381837047838B23F400631B04CA
:10B1A0001B0C43EA012189B281837047038B23F092
:10B1B00004031B041B0C194301837047038B23F406
:10B1C00080631B041B0C43EA012189B20183704791
:10B1D000838B23F004031B041B0C194381837047EA
:10B1E000838B23F480631B041B0C43EA012189B287
:10B1F00081837047038B23F080031B041B0C1943CE
:10B2000001837047038BC3F30E0343EA012189B224
:10B2100001837047838B23F080031B041B0C1943AD
:10B2200081837047838BC3F30E0343EA012189B204
:10B2300081837047038C23F002031B041B0C19430A
:10B2400001847047038C23F008031B041B0C194373
:10B2500001847047038C23F020031B041B0C43EA7A
:10B26000011189B201847047038C23F080031B0411
:10B270001B0C43EA011189B201847047038C23F44B
:10B2800000731B041B0C43EA012189B2018470473F
:10B29000038C23F400631B041B0C43EA012189B2D5
:10B2A00001847047038C23F400531B041B0C43EAF6
:10B2B000013189B201847047038C10B401248C40A1
:10B2C00023EA04030384038C5DF8044B02FA01F1C2
:10B2D000194389B201847047038C10B404248C4054
:10B2E00023EA04030384038C5DF8044B02FA01F1A2
:10B2F000194389B2018470470B88F0B44D888F8858
:10B300000E89C98853B3042B4AD0082B038C6ED006
:10B3100023F480531B041B0C0384828B048C3303A3
:10B3200040F6FF46164045F6FF72224043EA0723E7
:10B3300042F48052334342EA05329BB292B2838395
:10B340000284838B23F440631B041B0C8383838B55
:10B3500043EA012189B28183F0BC7047048C24F058
:10B3600001042404240C0484038B028C9BB223F07C
:10B37000F30392B23B4322F00A0243EA06132A4344
:10B380009BB242F0010203830284038B23F00C037F
:10B390001B041B0C0383038B19430183F0BC704710
:10B3A000038C23F010031B041B0C0384048B028CFE
:10B3B0003B0292B243EA063622F0A00240F6FF4377
:10B3C000234042F01002334342EA05129BB292B28C
:10B3D00003830284038B23F440631B041B0C03834D
:10B3E000038B43EA012189B20183F0BC704723F447
:10B3F00080731B041B0C0384838B028C9BB292B260
:10B4000023F0F30322F420623B4342F4807243EAC8
:10B41000061342EA05229BB292B283830284838B95
:10B4200023F00C031B041B0C8383838B1943818340
:10B43000F0BC704700230122426003600381704723
:10B440002DE9F0414F88B1F804E00A89CD880B88D6
:10B45000002F4FEA021114BF002602261203BEF18C
:10B46000010F4FEA052415BF4FF480784FF40078A0
:10B470004FF0010C4FF0020C89B292B2A4B2002B33
:10B4800045D0038C23F010031B041B0C0384B0F87D
:10B490001880038C9BB242EA0E2E23F0A00340F6E4
:10B4A000FF4202EA080243F0100342EA0E0243EAB6
:10B4B000071392B29BB202830384038B23F440638D
:10B4C0001B041B0C0383038B1C430483038C23F09A
:10B4D00001031B041B0C0384028B038C92B29BB2EE
:10B4E00022F0F30223F00A0343F0010311431E4349
:10B4F0004CEA010101830684038B23F00C031B0437
:10B500001B0C0383038B1D430583BDE8F081038C73
:10B5100023F001031B041B0C0384B0F818C0038C38
:10B520001FFA8CFC9BB22CF0F30C23F00A034EEABA
:10B530000C0E3B4341EA0E0143F0010301830384F7
:10B54000038B23F00C031B041B0C0383038B1D4391
:10B550000583038C23F010031B041B0C0384058B51
:10B56000038C40F6FF419BB2294023F0A00343F037
:10B5700010030A4343EA061642EA0808A0F81880B6
:10B580000684038B23F440631B041B0C0383038B8F
:10B590001C430483BDE8F081406B7047806B7047AB
:10B5A000C06B7047006C7047038B23F00C031B04C7
:10B5B0001B0C0383038B194301837047038B23F414
:10B5C00040631B041B0C0383038B43EA012189B2F4
:10B5D00001837047838B23F00C031B041B0C8383B4
:10B5E000838B194381837047838B23F440631B044F
:10B5F0001B0C8383838B43EA012189B281837047CB
:10B6000070B40B884C888A88CE880D8923431343F5
:10B610004C898A8933432B4323431343A0F8443096
:10B6200070BC704700230360436083608381704770
:10B63000B0F8443021B9C3F30E03A0F8443070478A
:10B6400043F40043A0F84430704700BF838829B911
:10B6500023F004031B041B0C8380704743F0040396
:10B6600083807047838829B923F001031B041B0CD6
:10B670008380704743F001038380704783891AB940
:10B6800023EA01018181704719438181704700BF1E
:10B6900081827047038A194214BF0120002070473D
:10B6A000C94389B201827047038A828911EA030083
:10B6B00092B203D00A4214BF01200020704700BF9D
:10B6C000C94389B2018270470A43A0F848207047F5
:10B6D00083891AB923EA0101818170471943818165
:10B6E000704700BF838829B923F008031B041B0C93
:10B6F0008380704743F0080383807047038923F0F9
:10B7000007031B041B0C0381704700BF038923F050
:10B7100070031B041B0C19430181038943F00703C9
:10B7200003817047602970B426D0068C26F001068C
:10B730003604360C0684048B058C24F0F3042404B0
:10B74000240C25F00A0544EA03142D0442F00106F6
:10B7500044F001042D0CA4B235430483058403890D
:10B7600023F070031B041B0C19430181038943F070
:10B770000703038170BC7047048C24F01004240478
:10B78000240C0484048B068C26F0A00640F6FF45AA
:10B7900036042C40360C44EA033446EA021644F4DC
:10B7A000807446F01006A4B2B6B204830684D6E7CD
:10B7B00010B4048942EA03231943E4B2214389B255
:10B7C000018103895DF8044B23F077031B041B0CF4
:10B7D00043F077030381704710B4048942EA0323DE
:10B7E0001943E4B2214389B2018103895DF8044B16
:10B7F00043F4804303817047038923F070031B04E3
:10B800001B0C194301817047838823F070031B04CC
:10B810001B0C83808388194381807047038923F040
:10B8200007031B041B0C0381038919430181704723
:10B83000038923F080031B041B0C03810389194334
:10B840000181704710B404890A43E4B242EA032339
:10B8500023439BB203815DF8044B704770B442EA06
:10B8600003120589038B048C0A4E24F0220425F070
:10B87000070524041E402D04240C2D0C46F480736F
:10B8800014432943A4B243F00103018103830484D8
:10B8900070BC7047FCFCFFFF838829B923F080034C
:10B8A0001B041B0C8380704743F080038380704728
:10B8B000A0F85010704700BF50BA040800000020E4
:10B8C00030F6002030F60020D09301204049414B53
:10B8D000D1F88820404842F47002C1F888201A68E4
:10B8E000002142F001021A6099601A6822F0847205
:10B8F00022F480321A6058601A6882B022F48022E2
:10B900001A60D960009101911A6842F480321A607D
:10B910001A4603E0009BB3F5A06F09D0136803F447
:10B9200000330193009B01330093019B002BF1D066
:10B93000284B1B6813F4003318BF01230193019BAC
:10B94000012B14D0234B25499A6822F400029A60F7
:10B95000C3F884101A6842F080621A601A681201F3
:10B96000FCD51B4B4FF000629A6002B07047194B38
:10B970001B491A6C1B4842F080521A640A6842F450
:10B9800040420A609A689A609A6842F400429A605B
:10B990009A6842F4A0529A6058601A6842F0807225
:10B9A0001A601A689101FCD50F490A4A40F20560F5
:10B9B0000860996821F003019960996841F00201DB
:10B9C0009960936803F00C03082BFAD1BAE700BF23
:10B9D00000ED00E000380240103000240056002046
:10B9E0000070004008544007003C0240154A93682C
:10B9F00003F00C03042B23D0082B09D0124B114A5F
:10BA000012499268C2F303128A5CD3400B617047FB
:10BA10005068516852684302C2F3881201F03F0136
:10BA20004CBF0B4B084BB3FBF1F303FB02F3054A8E
:10BA30005268C2F3014201325200B3FBF2F3DEE777
:10BA4000034BDCE7003802400024F4001000002023
:10BA500000127A002DE9F047774CDFF8F881774E35
:10BA60009CB0074600212046FCF744FC20460021FC
:10BA7000FCF7F8FC40460021FCF774FFFCF7E2FB02
:10BA800001216F48FEF7F0FC01214FF48070FEF7B2
:10BA90001BFD4FF480614FF4006C00254FF00F093F
:10BAA0004FF480724FF4003340460F970E96139177
:10BAB00001260DA94FF40057CDE914C7CDE916238F
:10BAC0000D95109512951895CDE91A55CDF844901D
:10BAD0001996FCF709FF31464046FCF743FF4FF447
:10BAE00040324FF4A06302A81CAFCDE903250593B3
:10BAF0000295FCF7E5FB00222046002306A9CDE9CC
:10BB0000082306958DF81C608DF81D600A958DF848
:10BB10002C90FCF7A5FBEF2347F8703D4FF0030A8C
:10BB2000394648488DF807508DF804A0FEF75EF8B6
:10BB30003F23394644480093FEF758F839464348B6
:10BB4000CDF800A0FEF752F8394640234048009354
:10BB5000FEF74CF83246294620460623FCF702FC45
:10BB60003146204606230222FCF7FCFB52462046C3
:10BB700006230221FCF7F6FB514620460623042249
:10BB8000FCF7F0FB0623204619460522FCF7EAFBEA
:10BB9000062320461A460721FCF7E4FB204606232D
:10BBA00007220A21FCF7DEFB2046062308220B2190
:10BBB000FCF7D8FB2046062309220C21FCF7D2FB18
:10BBC000204606230A220D21FCF7CCFB2046062343
:10BBD0000B220E21FCF7C6FB4946204606230C2209
:10BBE000FCF7C0FB204606230D220521FCF7BAFB1B
:10BBF000204606230E220821FCF7B4FB06234A4602
:10BC000020460921FCF7AEFB2A4640461021FCF7EE
:10BC10002BFF31462046FCF72FFC31462046FCF72F
:10BC200021FC31462046FCF765FB2046FCF7E0FB93
:10BC30001CB0BDE8F08700BF002001404C2001404F
:10BC400007004000000002400008024000040240DB
:10BC500000140240106402402DE9F043574CDFF815
:10BC60006881574F9DB0064600212046FCF742FBF5
:10BC700020460021FCF7F6FB40460021FCF772FE4F
:10BC800001214FF48000FEF7EFFB01214FF48060AB
:10BC9000FEF71AFC01212020FEF7E6FB4FF080633F
:10BCA0004FF480614FF4006E4FF4005C00254FF4B8
:10BCB000807240460F960D9307264FF400330E977F
:10BCC000139101270DA9CDE914ECCDE916231095A8
:10BCD00012951895CDE91A5511961997FCF704FE9F
:10BCE00039464046FCF73EFE4FF440324FF4A06325
:10BCF00002A8CDE9032505930295FCF7E1FA00229D
:10BD00002046002306A9CDE9082306958DF81C706E
:10BD10008DF81D700A958DF82C60FCF7A1FA1CA90E
:10BD20004FF47E7341F8703D4FF0030925488DF8BC
:10BD300007508DF80490FDF759FF33463A462046E8
:10BD40000421FCF70FFB3346204602220921FCF7B1
:10BD500009FB33464A4620460E21FCF703FB3346D7
:10BD6000204604220F21FCF7FDFA05223346204627
:10BD70001146FCF7F7FA0622334620461146FCF737
:10BD8000F1FA3346324631462046FCF7EBFA2A46B2
:10BD900040461021FCF768FE39462046FCF76CFB54
:10BDA00039462046FCF75EFB39462046FCF7A2FAEE
:10BDB0002046FCF71DFB1DB0BDE8F08300220140CA
:10BDC0004C220140001402402864024048B3F0B401
:10BDD000DFF854C0134F0831802531F9086C31F970
:10BDE000064C04EB0644B4F1B04F42F8044BCCBF10
:10BDF000ACF81850ACF81A5031F9046C31F9024C17
:10BE0000043804EB0644B4F1B04F80B243F8044B5D
:10BE100001F10801CCBF3D837D830028DDD1F0BC5A
:10BE2000704770470008024000100240D0B1F0B5E2
:10BE300051F8047B52F8046B00252C464FEA274E3C
:10BE40004FEA264C04386EF30F056CF30F0467F3CA
:10BE50001F4566F31F4480B21D605C6008330028F4
:10BE6000E6D1F0BD704700BF012070472DE9F041D9
:10BE70003A4C3B4D4FF4961307460E46236004E0C0
:10BE800023685A1E2260002B65D04FF400312846EB
:10BE9000FEF70EF90028F3D101213148DFF8CC80FC
:10BEA0002F4DFDF7FDFF4FF48053236004E023681E
:10BEB0005A1E2260002B4ED041462846FEF7E4F879
:10BEC0000028F4D0002234212548DFF8A480244D36
:10BED000FDF7FEFF4FF48053236004E023685A1EF1
:10BEE0002260002B37D041462846FEF7CDF80028C7
:10BEF000F4D0C6F3002141EA47011948194FC9B2ED
:10BF00000546FEF765F84FF48053236003E023688D
:10BF10005A1E2260FBB139462846FEF7B5F80028C4
:10BF2000F5D00F48F1B20546FEF752F84FF49613DC
:10BF30000D4E236003E023685A1E22605BB1314638
:10BF40002846FEF7B5F80028F5D005480121FDF791
:10BF5000B3FF002000E00120BDE8F08124000020B4
:10BF6000005800408000070004000010010003009A
:10BF70008200070038B500210F20FFF777FF054D3D
:10BF80000024E0B235F8021B0134FFF76FFF0A2CE2
:10BF9000F7D138BD38C9010830B5104C85B0012142
:10BFA0004FF48000FEF784FA04AD2046FDF7BEFE94
:10BFB0004CF2503345F8103D094B0A4A0193204694
:10BFC0004FF4804301210292ADF80C30FDF75CFF85
:10BFD00029462046FDF7E0FE05B030BD0058004080
:10BFE0000000FFBF3300000430B50F4C85B005469C
:10BFF00001214FF48040FEF75BFA2046FEF734FC47
:10C000000A4B02954FF40072204669460024CDE9A0
:10C010000023ADF80C40FEF77DFC69460448FEF7AE
:10C0200043FD05B030BD00BF0038004003000002F2
:10C030000034004030B5012183B0214C214D062051
:10C04000FEF712FA204B204669464FF44062CDE9D4
:10C050000023FDF7CBFD204604220A21FDF750FE08
:10C06000042220460B21FDF74BFE4FF4704C69462D
:10C0700020460223CDE900C3FDF7B8FD4023694601
:10C0800028460093FDF7B2FD204605220C21FDF75E
:10C0900037FE204605220D21FDF732FE20460522FF
:10C0A0000F21FDF72DFE204605220E21FDF728FE6B
:10C0B000284605220621FDF723FE03B030BD00BF50
:10C0C000000402400008024002000100F0B585B003
:10C0D0000746FFF7AFFF01214FF48000FEF7E8F9B4
:10C0E0001F48204DFDF722FE04AE1F4B1F4A01934F
:10C0F0004CF25033029246F8103D4FF48044012137
:10C100001748ADF80C40FDF7BFFE31461448FDF767
:10C1100043FE20460121FEF7CBF91548FEF7A4FBAC
:10C1200000244FF40072134B1148009231460193E2
:10C130000297ADF80C40FEF7EDFB31460E48FEF7D6
:10C14000B3FC21460F20FFF791FEE0B235F8021B49
:10C150000134FFF78BFE0A2CF7D105B0F0BD00BF0C
:10C160000058004038C901080000FFBF3300000438
:10C1700000380040030000020034004030B50121C7
:10C1800083B00846FEF770F901214FF00050FEF72A
:10C190008FF900241022032369460F4800928DF87E
:10C1A00004308DF80740FDF721FD0C4B04214FF4BE
:10C1B00030621960204619464025DC60C3E901520F
:10C1C000FCF720FA20460121FCF73AFA21462046E6
:10C1D000FCF774FA03B030BD00000240B0F8002054
:10C1E000014BD862704700BF0010004010B501211C
:10C1F00084B00E4C1020FEF75BF901A8FEF7F8FDA5
:10C2000000234FF4804201A920460292ADF80C3081
:10C210000193FEF7A3FD20462021FFF7F5FA204603
:10C220000121FEF739FE04B010BD00BF0010004030
:10C23000024A034B32F820201A8370474CC9010888
:10C2400000100240024A034B32F820205A83704704
:10C250004CC9010800100240014B6F221A8370473D
:10C2600000100240014B6F225A83704700100240B9
:10C2700005280AD0084B094A03EB8000126983693C
:10C280001A420CBF012000207047054B186980F44A
:10C290000040C0F3C03070474CC90108000C024098
:10C2A000001802402DE9F04F012189B01020FEF75F
:10C2B000DBF8684DDFF8AC91DFF8ACB1664F674E44
:10C2C000DFF8A88101210420FEF7CEF803A801249D
:10C2D000FDF7DAFC03A928467023CDE90334FDF706
:10C2E00085FC03A928466F230393FDF77FFC03A970
:10C2F000284680230393FDF779FC802303A9484651
:10C300000393FDF773FC21464020FEF7ADF84FF490
:10C31000FC4303A958460393FDF768FC21464020DF
:10C32000FEF7A2F86C2303A95846CDE90334FDF7C4
:10C330005DFC21464A20FEF797F821460420FEF7CF
:10C3400093F800234FF4807203A938468DF810301B
:10C350008DF811300193039200928DF81340FDF790
:10C3600045FC03A930464FF0080CCDF80CC0FDF792
:10C370003DFC03A928464FF4007CCDF80CC0FDF726
:10C3800035FC41F20F0C03A93846CDF80CC04FF430
:10C39000004AFDF72BFC584603A94FF4804BCDF81B
:10C3A0000CA0FDF723FC03A93846CDF80CB0FDF72F
:10C3B0001DFC009A0392284603A9FDF717FC0425EB
:10C3C00003A930460395FDF711FC384603A9CDF8C3
:10C3D0000CA0FDF70BFC022203A948468DF81320A0
:10C3E000CDF80CA0FDF702FC484603A9CDF80CB02F
:10C3F000FDF7FCFB402203A930460392FDF7F6FB54
:10C40000802303A930460393FDF7F0FB214628461D
:10C41000FEF74EF808A8124A40F8182DFBF7C2FEA6
:10C4200005A8FEF7E5FC019BADF81C3005A94046C8
:10C430004FF4FA42CDE90532FEF790FC2246214640
:10C440004046FFF71BF921464046FEF725FD09B09F
:10C45000BDE8F08F00100240000C024000040240D2
:10C460001E030201000802400018024000080040BC
:10C4700010B5012184B00420FEF71AF804A80F4B70
:10C4800040F8103D0E4CFBF78DFE01A8FEF7B0FC06
:10C49000002301A920464FF4FA42ADF80C30019375
:10C4A0000292FEF75BFC012211462046FFF7E6F8F8
:10C4B00020460121FEF7F0FC04B010BD1E0302016E
:10C4C0000008004010B501212A48FFF7F9F82A4B6F
:10C4D0002A4A1C692A4811882A4B14F4004F18BFB5
:10C4E000034643EA41039BB203F03F013C2913801A
:10C4F00002D1254B012119701F4921480C69214B9C
:10C50000518814F4804F18BF034643EA41039BB29D
:10C5100003F03F013C29538002D11C4B01211970CB
:10C520001B4917480C69174B918814F0400F18BF2E
:10C53000034643EA41039BB24FF6F8718B42938066
:10C5400002D1144B0121197011490D480C690D4B92
:10C55000D18814F0800F18BF034643EA41039BB211
:10C560004FF6F8718B42D38000D010BD0A4B0122E8
:10C570001A7010BD000800400008024034F6002088
:10C5800000E0FFFF01E0FFFFC4F80020C5F8002035
:10C5900000040240C3F80020C2F800202DE9F04159
:10C5A00001218AB00846FDF78FFF01210220FDF727
:10C5B0007FFF0AAC614B019301210420FDF754FF7A
:10C5C0004FF4407344F8283DDFF888815C4F5D4D9F
:10C5D0005D4E21464046FDF709FB01210846FDF767
:10C5E00043FF4FF4A063214638460093FDF7FEFA5F
:10C5F00001210220FDF738FF302321462846009311
:10C60000FDF7F4FA404602220821FDF779FB404687
:10C6100002220921FDF774FB384601220821FDF7AB
:10C620006FFB384601220A21FDF76AFB28460222E9
:10C630000421FDF765FB022228460521FDF760FB7A
:10C64000424B002402A8A5F58235C3E90044C3E9A2
:10C650000244C3E90444FEF7CBFB4FF4805302A924
:10C660003046CDE90243ADF81040FEF777FB02A952
:10C670002846FEF773FB05A8FEF718FD344A05921D
:10C680004FF4807305A930460993ADF81840CDE901
:10C690000744FEF70DFC30460821FEF763FD05A9AF
:10C6A0003046FEF743FC30460821FEF763FD05A93E
:10C6B0003046FEF77FFC30460821FEF765FD05A9F0
:10C6C0003046FEF7BDFC30460821FEF765FD3046DA
:10C6D0000121FEF7ADFF30460121FEF7DDFB2846C4
:10C6E0002021FFF791F821462846FEF7AFFF2146AB
:10C6F0002846FEF7B7FF21462846FEF7F3FF2146FE
:10C700002846FFF7C9F805A92846FEF7D1FB2846B9
:10C710000821FEF727FD05A92846FEF74BFC284611
:10C720000821FEF731FD28460121FEF781FF28464A
:10C730000121FEF7B1FB0AB0BDE8F0810200000163
:10C74000000002400004024000040040E0F8002025
:10C75000600001000008024010B5012184B04FF4D0
:10C760008030FDF7B1FE04A80F4B40F8103D0F4C90
:10C77000FBF718FD01A8FEF73BFB002301A92046AB
:10C7800047F23052ADF80C3001930292FEF7E6FA10
:10C79000012211462046FEF771FF20460121FEF7D7
:10C7A0007BFB04B010BD00BF180100010040014038
:10C7B000CE4B1B78032B30B400F0AC81CC4A012B5C
:10C7C000126840F2C580002A00F02182C949CA4897
:10C7D000D1ED007A90ED007AC84B67EE277A1C6B9A
:10C7E000C1ED007A83ED067A002C40F0C783FCEEA1
:10C7F000E77A17EE902AB2F1007F40F24984C04AEE
:10C800009C6440F6FA7540F21D1415601C63D0ED6F
:10C81000017A91ED017AC3ED077A5C6B67EE877A56
:10C82000C1ED017A002C40F0C383FCEEE77A17EEED
:10C83000905AB5F1007F40F2218440F21D15DC646E
:10C8400040F6FA745D635460D0ED027A91ED027A9D
:10C85000C3ED087A9C6B67EE877AC1ED027A002CF3
:10C8600040F0A383FCEEE77A17EE905AB5F1007F13
:10C8700040F2FB8340F21D151C6540F6FA749D637F
:10C880009460D0ED037A91ED037AC3ED097ADC6B05
:10C8900067EE877AC1ED037A002C40F08383FCEECB
:10C8A000E77A17EE905AB5F1007F40F2C48340F268
:10C8B0001D155C6540F6FA74DD63D460D0ED047A32
:10C8C00091ED047AC3ED0A7A1C6C67EE877AC1EDAC
:10C8D000047A002C40F06383FCEEE77A17EE905A5E
:10C8E000B5F1007F40F2B08340F21D159C6540F623
:10C8F000FA741D641461D0ED057A91ED057AC3EDEB
:10C900000B7A586C67EE877AC1ED057A002840F003
:10C910005583FCEEE77A17EE901AB1F1007F00F232
:10C920009C83D96D0131B1F58E7FD96500D95061F5
:10C93000744B1168D96351681964734990684863EE
:10C94000D068C8631169596352699A6330BC7047F3
:10C950006E496F4BD1ED005A93ED005A6549674B14
:10C96000F7EE007A77EEE54A77EEC57A002A00F016
:10C970006382D1ED006A93ED007A91ED016A5E4821
:10C980005F4A90ED004AF4EEC76AF1EE10FACBBFB1
:10C9900066EEA76A66EEA46AE5EE076AE5EE876AC8
:10C9A00093ED017AC3ED006AB4EEC76AF1EE10FAB6
:10C9B000CCBF27EE866A24EE866A66EE846AD4BF10
:10C9C000A5EE876AA5EE076AFCEEE66A93ED027AA9
:10C9D00090ED014A83ED016A16EE904AD1ED026AAC
:10C9E00026EE046AF4EEC76AF1EE10FACCBF67EEE9
:10C9F000A66A64EEA66ABCEEC66A4FEA1444D8BFC3
:10CA0000E5EE876A1460C8BFE5EE076A16EE104AC5
:10CA100093ED037A91ED036A90ED024AC3ED026A49
:10CA2000B4EEC76AF1EE10FACCBF27EE866A24EEA8
:10CA3000866A66EE846AD8BFA5EE876A4FEA144418
:10CA40005460C8BFA5EE076AFCEEE66A93ED047A6F
:10CA500090ED034A83ED036A16EE904AD1ED046A25
:10CA600026EE046AF4EEC76AF1EE10FACCBF67EE68
:10CA7000A66A64EEA66ABCEEC66A4FEA1444D8BF42
:10CA8000E5EE876A9460C8BFE5EE076A16EE104AC5
:10CA900091ED057A93ED056A90ED044AC3ED046AC1
:10CAA000B4EEC76AF1EE10FA56BF64EE877A67EE0D
:10CAB000877AE5EE867A4FEA1444D46048BFE5EE03
:10CAC000067A90ED057AC3ED057A66EE846A67EE24
:10CAD000877AFCEEE66AFCEEE77A16EE901A17EE1D
:10CAE000903A090C1B0C1161536121E7128501205A
:10CAF0001C850120C8F800200CF8002040F600201A
:10CB0000E0F800200004004000000140988501206A
:10CB10008C850120AD4BAE49AE4A93ED006ADFED46
:10CB2000AE6A9FEDAE7A9FEDAE4ADFEDAE4A9FED65
:10CB3000AE5ADFEDAE5ADFEDAE2A9FEDAE3ADFED35
:10CB4000AE3A01F11804104637E00F2B41D0102BFC
:10CB500048D1DFEDAA7A9FEDAA0A9FEDAA1ADFED70
:10CB6000AA1ADFEDAA0A77EEC27A67EE807A32EE71
:10CB7000602AC2EE010AE0EEA17AFCEEE77A17EE37
:10CB8000903A83F30C0307EE903AF8EE677A67EE7B
:10CB9000867AFCEEE77AF8EE677AF4EEC77AF1EE81
:10CBA00010FA14D477EEC77AFCEEE77A17EE903AD3
:10CBB000A14240F8043B3FF4BBAEB1EC012A62EE67
:10CBC000267AFCEEE77A17EE903A0E2BBDD80023BA
:10CBD000EEE7F0EE447AB0EE641AF0EE451AF0EEAD
:10CBE000650AC4E7112B00F0E180122B40F0F781B9
:10CBF000DFED877A9FED870A9FED871ADFED871AB1
:10CC0000DFED870A77EEC27A67EE807AAFE7854B71
:10CC1000DFED856A93ED067A6D49186BD1ED007AE8
:10CC2000B4EEE67AF1EE10FA48BFB6EE007A67EE9F
:10CC3000277AC1ED007A002840F0A481FCEEE77A63
:10CC400017EE902AB2F1007F00F22C829A6C01322A
:10CC5000B2F58E7F9A645F4A88BF106093ED077AC1
:10CC6000DFED716AD1ED017A586BB4EEE67AF1EE40
:10CC700010FA48BFB6EE007A67EE277AC1ED017A66
:10CC8000002840F09881FCEEE77A17EE904AB4F164
:10CC9000007F00F21082DC6C0134B4F58E7FDC641E
:10CCA00000F22E8293ED087ADFED5F6AD1ED027A11
:10CCB000986BB4EEE67AF1EE10FA48BFB6EE007A61
:10CCC00067EE277AC1ED027A002840F06581FCEE1C
:10CCD000E77A17EE904AB4F1007F00F2A4811C6D50
:10CCE0000134B4F58E7F1C6500F2088293ED097A59
:10CCF000DFED4D6AD1ED037AD86BB4EEE67AF1EE52
:10CD000010FA48BFB6EE007A67EE277AC1ED037AD3
:10CD1000002840F03E81FCEEE77A17EE904AB4F12D
:10CD2000007F00F278815C6D0134B4F58E7F5C6524
:10CD300000F2E28193ED0A7ADFED3B6AD1ED047AED
:10CD4000186CB4EEE67AF1EE10FA48BFB6EE007A4F
:10CD500067EE277AC1ED047A002840F01781FCEED7
:10CD6000E77A17EE904AB4F1007F00F24C819C6D97
:10CD70000134B4F58E7F9C6500F2BC8193ED0B7A93
:10CD8000DFED296AD1ED057AB4EEE67AF1EE10FA1C
:10CD900048BFB6EE007A67EE277AC1ED057A596C86
:10CDA000002900F00E8101395964C1E5DFED1C7ADC
:10CDB0009FED1E0A9FED1E1ADFED1E1ADFED0F0A12
:10CDC00077EEC27A67EE807AD1E600BF28000020B5
:10CDD000C8F80020E0F800200000004600F0FF4204
:10CDE000000000002073E03800002C42A4E9EB3A78
:10CDF0003436024A20BD3C390080D543C966043B25
:10CE0000CD2AB948C0CBED380000AA42D6F0F93A95
:10CE10009C9D143B8E8775496075053900002B4336
:10CE200046460C3B40F600206F12033B05BE2C49E2
:10CE3000A0EFFB380000004391ED007AD3ED006ACB
:10CE400093ED016AC14AB4EEE67AF1EE10FACBBF77
:10CE500027EE877A24EE877AA5EE267AA5EEA67AC3
:10CE6000FCEEC76A83ED007A16EE900AD1ED016AF6
:10CE7000F4EEC66AF1EE10FACABF67EEA66A64EE77
:10CE8000A66AE5EE066A4FEA90401060D8BFE5EE6C
:10CE9000866A93ED026AC3ED016ABCEEE67A17EE8C
:10CEA000100A91ED027AB4EEC67AF1EE10FACABF1A
:10CEB00027EE877A24EE877AA5EE067A4FEA90402D
:10CEC0005060D8BFA5EE867A93ED036A83ED027AAF
:10CED000FCEEC76A16EE900AD1ED036AF4EEC66A5C
:10CEE000F1EE10FACABF67EEA66A64EEA66AE5EE36
:10CEF000066A4FEA90409060D8BFE5EE866A93EDEF
:10CF0000046AC3ED036ABCEEE67A17EE100A91EDEF
:10CF1000047AB4EEC67AF1EE10FACABF27EE877A29
:10CF200024EE877AA5EE067A4FEA9040D060D8BF0B
:10CF3000A5EE867A91ED056A83ED047AFCEEC76A68
:10CF400016EE900AD3ED056AB4EEE66AF1EE10FA39
:10CF5000CABF67EE867A64EE867AE5EE267A4FEAF5
:10CF600090401061D8BFE5EEA67ABCEEE77AC3ED3B
:10CF7000057A17EE101A890C5161D9E4013C734A05
:10CF80001C6344E40138714A186367E60138186489
:10CF9000F4E60138D863CDE601389863A6E6013C93
:10CFA0001C64A8E4013CDC6388E4013C9C6368E405
:10CFB000013C5C6348E40138586373E60138586407
:10CFC000B6E4FCEEE77A17EE900AB0F1007F7AD96A
:10CFD00040F21D1440F6FA70D9655C64A7E4132B87
:10CFE00079D0142B40F08E80DFED597A9FED590AED
:10CFF0009FED591ADFED591ADFED590A77EEC27A23
:10D0000067EE807AB3E540F21D1540F6FA74986534
:10D010001D641461B2E640F21D1540F6FA745865BD
:10D02000DD63D46086E640F21D1540F6FA7418659B
:10D030009D6394605AE65D6D0135B5F58E7F5D6543
:10D040007FF63CACD46039E49D6D0135B5F58E7F3B
:10D050009D657FF650AC14614DE440F21D1440F61E
:10D06000FA71D8655C64516162E41D6D0135B5F5F6
:10D070008E7F1D657FF605AC946002E4DD6C0135A2
:10D08000B5F58E7FDD647FF6DFAB5460FFF7DCBB68
:10D090009A6C0132B2F58E7F9A642C4A88BF146074
:10D0A000FFF7B5BB294A986440F6FA7440F21D10A8
:10D0B00014601863D2E540F21D1540F6FA74D86486
:10D0C0005D635460EEE5D86D0130B0F58E7FD865B4
:10D0D00088BF51612CE4DFED227A9FED220A9FED9B
:10D0E000221ADFED221ADFED220A77EEC27A67EE0E
:10D0F000807A3CE5106141E6D0601BE69060F5E582
:10D100005060CFE5162B0ED8DFED1A7A9FED1A0A84
:10D110009FED1A1ADFED1A1ADFED0D0A77EEC27ACB
:10D1200067EE807A23E5172B40F0FC80DFED1B7A59
:10D130009FED140A9FED141ADFED141ADFED0D0AAE
:10D1400077EEC27A67EE807A11E500BFE0F8002042
:10D15000C1D0263B0F00B64950CD153900008043A1
:10D16000EC731D3B07CD9A4900650D39000055430E
:10D170009C9D143B1CBC303B0A77CE49B0B51E3990
:10D18000008095432D9CE349B02528390080AA43AF
:10D190004B03F549502532390000C043773E3B3BF5
:10D1A00080AA084A40F647390080EA439E2C523B49
:10D1B000CC60463B0CAF0D4A20DA533900000044E6
:10D1C00002AC5E3B2E5F154AC0CB6D390040154462
:10D1D000D6F0793B2073603900C00A44A4E96B3B68
:10D1E00055A8174AA0EF7B3900002044C966843B4C
:10D1F000B974194A6075853900C02A4446468C3B8B
:10D2000017931A4A00658D39004035449C9D943B24
:10D2100000DF1A4A50CD953900004044EC739D3B25
:10D2200048D91A4AB0B59E3900C04A4448571A4AEC
:10D23000B025A839004055441CBCB03B0D39194AF3
:10D240005025B23900006044E7E9174A20BDBC39D7
:10D2500000C06A44CC60C63BC444164A40F6C73995
:10D2600000407544CB2D144A20DAD33900008044A5
:10D2700002ACDE3B2073E03900608544A4E9EB3B5F
:10D28000D7950F4AC0CBED3900A08A44D6F0F93BC0
:10D290001CFE114A9E2CD23B74DC0C4AA0EFFB39D9
:10D2A00000009044401C0A4A6075053A00609544AD
:10D2B00046460C3C7639074A00650D3A00A09A4470
:10D2C000FE1E044A50CD153A0000A044EC731D3CEC
:10D2D000660A014AB0B51E3A0060A54484C7FB49FE
:10D2E000B025283A00A0AA441CBC303C4731F5497F
:10D2F0005025323A0000B0449E2C523CB4B8EE495E
:10D3000020BD3C3A0060B544CC60463C773E3B3C97
:10D31000C1D0263C9C9D143CC966043C773EBB3B77
:10D32000C1D0A63B182B0ED15FED5F7A1FED680AC6
:10D330001FED681A5FED681A5FED680A77EEC27A32
:10D3400067EE807A13E41A2B10D91B2B1CD15FEDEA
:10D35000647A1FED6D0A1FED6D1A5FED6D1A5FEDBA
:10D360006D0A77EEC27A67EE807A00E45FED717A3B
:10D370005FED710A77EEC27AB0EE431A67EEA27AD9
:10D38000F0EE631AFFF7F3BB1D2B0FD85FED6D7A3C
:10D390001FED780A1FED781A5FED781A5FED780AB5
:10D3A00077EEC27A67EE807AFFF7E1BB1F2B11D9C7
:10D3B000212B1FD85FED737A1FED7E0A1FED7E1AB9
:10D3C0005FED7E1A5FED7E0A77EEC27A67EE807AB5
:10D3D000FFF7CDBB5FED827A1FED530A1FED831A75
:10D3E0005FED831A5FED830A77EEC27A67EE807A8B
:10D3F000FFF7BDBB232B0FD85FED807A1FED880AA6
:10D400001FED881A5FED881A5FED880A77EEC27A01
:10D4100067EE807AFFF7ABBB252B0FD85FED857ADF
:10D420001FED8D0A1FED8D1A5FED8D1A5FED8D0AD0
:10D4300077EEC27A67EE807AFFF799BB272B0FD879
:10D440005FED8A7A1FED920A1FED921A5FED921A34
:10D450005FED920A77EEC27A67EE807AFFF787BBBC
:10D46000292B0FD85FED527A1FED970A1FED971AFF
:10D470005FED971A5FED970A77EEC27A67EE807AD2
:10D48000FFF775BB2C2B0FD85FED957A1FED9C0A2B
:10D490001FED9C1A5FED9C1A5FED5F0A77EEC27A72
:10D4A00067EE807AFFF763BB2E2B0FD85FED657AAE
:10D4B0001FEDA20A1FEDA21A5FEDA21A5FEDA20AEC
:10D4C00077EEC27A67EE807AFFF751BB312B0FD827
:10D4D0005FEDA07A1FEDA70A1FEDA71A5FEDA71A4F
:10D4E0005FED720A77EEC27A67EE807AFFF73FBB94
:10D4F000342B0FD85FED997A1FEDAD0A1FEDAD1AF1
:10D500005FEDAD1A5FEDAD0A77EEC27A67EE807A15
:10D51000FFF72DBB372B0FD85FEDAB7A1FEDB20AAB
:10D520001FEDB21A5FEDB21A5FEDA60A77EEC27A6E
:10D5300067EE807AFFF71BBB3A2B0FD85FEDB17A0D
:10D540001FEDB80A1FEDB81A5FEDB81A5FEDB80A03
:10D5500077EEC27A67EE807AFFF709BB3E2B0FD8D1
:10D560005FEDB67A1FEDB60A1FEDBE1A5FEDBE1A6B
:10D570005FEDBE0A77EEC27A67EE807AFFF7F7BA00
:10D58000422B0FD85FED9C7A1FEDC30A1FEDC31A23
:10D590005FEDC31A5FEDC30A77EEC27A67EE807A59
:10D5A000FFF7E5BA462B0FD85FEDBF7A1FEDC60A2D
:10D5B0001FEDC61A5FEDC61A5FEDA90A77EEC27AB3
:10D5C00067EE807AFFF7D3BA4A2B0FD85FEDAF7AB8
:10D5D0001FEDCC0A1FEDCC1A5FEDCC1A5FEDCC0A23
:10D5E00077EEC27A67EE807AFFF7C1BA4E2B0FD87A
:10D5F0005FEDCA7A1FEDD10A1FEDD11A5FEDD11A86
:10D600005FEDBC0A77EEC27A67EE807AFFF7AFBAB9
:10D61000532B0FD85FEDC27A1FEDD70A1FEDD71A33
:10D620005FEDD71A5FEDD70A77EEC27A67EE807AA0
:10D63000FFF79DBA582B0FD85FEDD57A1FEDDC0AA6
:10D640001FEDDC1A5FEDDC1A5FEDCF0A77EEC27AD0
:10D6500067EE807AFFF78BBA5D2B0FD85FEDD57A36
:10D660001FEDE20A1FEDE21A5FEDE21A5FEDE20A3A
:10D6700077EEC27A67EE807AFFF779BA632B0FD81C
:10D680005FEDDF7A1FEDE70A1FEDE71A5FEDE71A9E
:10D690005FEDE20A77EEC27A67EE807AFFF767BA4B
:10D6A000692B0FD85FEDEC7A1FEDEC0A1FEDEC1A39
:10D6B0005FEDEC1A5FEDEC0A77EEC27A67EE807AE6
:10D6C000FFF755BA6F2B0FD8DFEDEE7A9FEDEE0A1C
:10D6D0009FEDEE1ADFEDEE1ADFEDEE0A77EEC27A7D
:10D6E00067EE807AFFF743BA752B0FD8DFEDEA7A41
:10D6F0009FEDEA0A9FEDEA1ADFEDEA1ADFEDE10A93
:10D7000077EEC27A67EE807AFFF731BA7C2B0FD8BA
:10D71000DFEDE57A9FEDE50A9FEDE51ADFEDE51A0D
:10D72000DFEDDD0A77EEC27A67EE807AFFF71FBA87
:10D73000842B0FD8DFEDE07A9FEDE00A9FEDE01A31
:10D74000DFEDE01ADFEDD80A77EEC27A67EE807A75
:10D75000FFF70DBA8C2B0FD8DFEDDB7A9FEDDB0ADC
:10D760009FEDDB1ADFEDDB1ADFEDD30A77EEC27A2D
:10D7700067EE807AFFF7FBB9942B0FD8DFEDD67AEE
:10D780009FEDD60A9FEDD61ADFEDD61ADFEDCE0A51
:10D7900077EEC27A67EE807AFFF7E9B99D2B0FD852
:10D7A000DFEDD17A9FEDD10A9FEDD11ADFEDD11ACD
:10D7B000DFEDC90A77EEC27A67EE807AFFF7D7B954
:10D7C000A62B0FD8DFEDCC7A9FEDCC0A9FEDCC1ABB
:10D7D000DFEDCC1ADFEDC40A77EEC27A67EE807A0D
:10D7E000FFF7C5B9B02B0FD8DFEDC77A9FEDC70A99
:10D7F0009FEDC71ADFEDC71ADFEDBF0A77EEC27AD9
:10D8000067EE807AFFF7B3B9BB2B0FD8DFEDC27A92
:10D810009FEDC20A9FEDC21ADFEDC21ADFEDBA0A10
:10D8200077EEC27A67EE807AFFF7A1B9C62B0FD8E0
:10D83000DFEDBD7A9FEDBD0A9FEDBD1ADFEDBD1A8C
:10D84000DFEDB50A77EEC27A67EE807AFFF78FB91F
:10D85000D22B0FD8DFEDB87A9FEDB80A9FEDB81A3A
:10D86000DFEDB81ADFEDB00A77EEC27A67EE807AA4
:10D87000FFF77DB9DE2B0FD8DFEDB37A9FEDB30A4A
:10D880009FEDB31ADFEDB31ADFEDAB0A77EEC27A84
:10D8900067EE807AFFF76BB9EB2B0FD8DFEDAE7A2E
:10D8A0009FEDAE0A9FEDAE1ADFEDAE1ADFEDA60AD0
:10D8B00077EEC27A67EE807AFFF759B9F92B0FD865
:10D8C000DFEDA97A9FEDA90A9FEDA91ADFEDA91A4C
:10D8D000DFEDA10A77EEC27A67EE807AFFF747B9EB
:10D8E000B3F5847F0FD8DFEDA47A9FEDA40A9FEDF6
:10D8F000A41ADFEDA41ADFED9C0A77EEC27A67EE78
:10D90000807AFFF734B9B3F58C7F0FD8DFED9E7ABC
:10D910009FED9E0A9FED9E1ADFED9E1ADFED960A9F
:10D9200077EEC27A67EE807AFFF721B9B3F5957F7B
:10D930000FD2DFED997A9FED990A9FED991ADFEDED
:10D94000991ADFED910A77EEC27A67EE807AFFF7D7
:10D950000EB9B3F59D7F0FD8DFED937A9FED930A53
:10D960009FED931ADFED931ADFED8B0A77EEC27A03
:10D9700067EE807AFFF7FBB8B3F5A77F0FD2DFED34
:10D980008E7A9FED8E0A9FED8E1ADFED8E1ADFEDF7
:10D99000860A77EEC27A67EE807AFFF7E8B8B3F5C9
:10D9A000B17F0FD2DFED887A9FED880A9FED881A4C
:10D9B000DFED881ADFED800A77EEC27A67EE807AB3
:10D9C000FFF7D5B8B3F5BB7F0FD8DFED837A9FEDB6
:10D9D000830A9FED831ADFED831ADFED7B0A77EE72
:10D9E000C27A67EE807AFFF7C2B8B3F5C67F0FD868
:10D9F000DFED7D7A9FED7D0A9FED7D1ADFED7D1ACB
:10DA0000DFED750A77EEC27A67EE807AFFF7AFB87E
:10DA1000B3F5D27F0FD8DFED787A9FED780A9FEDCE
:10DA2000781ADFED781ADFED700A77EEC27A67EECA
:10DA3000807AFFF79CB8B3F5DF7F0FD2DFED727A03
:10DA40009FED720A9FED721ADFED721ADFED6A0A1E
:10DA500077EEC27A67EE807AFFF789B8B3F5EC7F8C
:10DA600080F0A681DFED727A9FED6B0A9FED6B1A55
:10DA7000DFED6B1ADFED640A77EEC27A67EE807A2B
:10DA8000FFF775B802AC5E3C4734E84940F6473AC8
:10DA900000A0BA449E2C523CA4E96B3C1084E1499E
:10DAA00020DA533A0000C044D6F0793C2AFDDA4926
:10DAB0002073603A0060C544C966843C187CD44930
:10DAC000C0CB6D3A00A0CA4446468C3CBEE4CD496A
:10DAD000A0EF7B3A0000D0449C9D943C237EC74934
